{
  "contractName": "Sale",
  "abi": [
    {
      "inputs": [
        {
          "internalType": "address",
          "name": "_admin",
          "type": "address"
        },
        {
          "internalType": "address",
          "name": "_seller",
          "type": "address"
        },
        {
          "internalType": "uint256",
          "name": "_tokenId",
          "type": "uint256"
        },
        {
          "internalType": "uint256",
          "name": "_minPrice",
          "type": "uint256"
        },
        {
          "internalType": "uint256",
          "name": "_purchasePrice",
          "type": "uint256"
        },
        {
          "internalType": "uint256",
          "name": "startTime",
          "type": "uint256"
        },
        {
          "internalType": "uint256",
          "name": "endTime",
          "type": "uint256"
        },
        {
          "internalType": "address",
          "name": "_currencyAddress",
          "type": "address"
        },
        {
          "internalType": "address",
          "name": "_nftAddress",
          "type": "address"
        }
      ],
      "stateMutability": "nonpayable",
      "type": "constructor"
    },
    {
      "anonymous": false,
      "inputs": [
        {
          "indexed": false,
          "internalType": "address",
          "name": "bidder",
          "type": "address"
        },
        {
          "indexed": false,
          "internalType": "uint256",
          "name": "amount",
          "type": "uint256"
        }
      ],
      "name": "HighestBidIncereased",
      "type": "event"
    },
    {
      "anonymous": false,
      "inputs": [
        {
          "indexed": false,
          "internalType": "address",
          "name": "winner",
          "type": "address"
        },
        {
          "indexed": false,
          "internalType": "uint256",
          "name": "amount",
          "type": "uint256"
        }
      ],
      "name": "SaleEnded",
      "type": "event"
    },
    {
      "inputs": [],
      "name": "buyer",
      "outputs": [
        {
          "internalType": "address",
          "name": "",
          "type": "address"
        }
      ],
      "stateMutability": "view",
      "type": "function"
    },
    {
      "inputs": [],
      "name": "currencyAddress",
      "outputs": [
        {
          "internalType": "address",
          "name": "",
          "type": "address"
        }
      ],
      "stateMutability": "view",
      "type": "function"
    },
    {
      "inputs": [],
      "name": "ended",
      "outputs": [
        {
          "internalType": "bool",
          "name": "",
          "type": "bool"
        }
      ],
      "stateMutability": "view",
      "type": "function"
    },
    {
      "inputs": [],
      "name": "erc20Contract",
      "outputs": [
        {
          "internalType": "contract IERC20",
          "name": "",
          "type": "address"
        }
      ],
      "stateMutability": "view",
      "type": "function"
    },
    {
      "inputs": [],
      "name": "erc721Constract",
      "outputs": [
        {
          "internalType": "contract IERC721",
          "name": "",
          "type": "address"
        }
      ],
      "stateMutability": "view",
      "type": "function"
    },
    {
      "inputs": [],
      "name": "highestBid",
      "outputs": [
        {
          "internalType": "uint256",
          "name": "",
          "type": "uint256"
        }
      ],
      "stateMutability": "view",
      "type": "function"
    },
    {
      "inputs": [],
      "name": "highestBidder",
      "outputs": [
        {
          "internalType": "address",
          "name": "",
          "type": "address"
        }
      ],
      "stateMutability": "view",
      "type": "function"
    },
    {
      "inputs": [],
      "name": "minPrice",
      "outputs": [
        {
          "internalType": "uint256",
          "name": "",
          "type": "uint256"
        }
      ],
      "stateMutability": "view",
      "type": "function"
    },
    {
      "inputs": [],
      "name": "nftAddress",
      "outputs": [
        {
          "internalType": "address",
          "name": "",
          "type": "address"
        }
      ],
      "stateMutability": "view",
      "type": "function"
    },
    {
      "inputs": [],
      "name": "purchasePrice",
      "outputs": [
        {
          "internalType": "uint256",
          "name": "",
          "type": "uint256"
        }
      ],
      "stateMutability": "view",
      "type": "function"
    },
    {
      "inputs": [],
      "name": "saleEndTime",
      "outputs": [
        {
          "internalType": "uint256",
          "name": "",
          "type": "uint256"
        }
      ],
      "stateMutability": "view",
      "type": "function"
    },
    {
      "inputs": [],
      "name": "saleStartTime",
      "outputs": [
        {
          "internalType": "uint256",
          "name": "",
          "type": "uint256"
        }
      ],
      "stateMutability": "view",
      "type": "function"
    },
    {
      "inputs": [],
      "name": "seller",
      "outputs": [
        {
          "internalType": "address",
          "name": "",
          "type": "address"
        }
      ],
      "stateMutability": "view",
      "type": "function"
    },
    {
      "inputs": [],
      "name": "tokenId",
      "outputs": [
        {
          "internalType": "uint256",
          "name": "",
          "type": "uint256"
        }
      ],
      "stateMutability": "view",
      "type": "function"
    },
    {
      "inputs": [
        {
          "internalType": "uint256",
          "name": "bid_amount",
          "type": "uint256"
        }
      ],
      "name": "bid",
      "outputs": [],
      "stateMutability": "payable",
      "type": "function"
    },
    {
      "inputs": [],
      "name": "purchase",
      "outputs": [],
      "stateMutability": "payable",
      "type": "function"
    },
    {
      "inputs": [],
      "name": "confirmItem",
      "outputs": [],
      "stateMutability": "payable",
      "type": "function"
    },
    {
      "inputs": [],
      "name": "cancelSales",
      "outputs": [],
      "stateMutability": "payable",
      "type": "function"
    },
    {
      "inputs": [],
      "name": "getTimeLeft",
      "outputs": [
        {
          "internalType": "int256",
          "name": "",
          "type": "int256"
        }
      ],
      "stateMutability": "view",
      "type": "function"
    },
    {
      "inputs": [],
      "name": "getSaleInfo",
      "outputs": [
        {
          "internalType": "uint256",
          "name": "",
          "type": "uint256"
        },
        {
          "internalType": "uint256",
          "name": "",
          "type": "uint256"
        },
        {
          "internalType": "uint256",
          "name": "",
          "type": "uint256"
        },
        {
          "internalType": "uint256",
          "name": "",
          "type": "uint256"
        },
        {
          "internalType": "uint256",
          "name": "",
          "type": "uint256"
        },
        {
          "internalType": "address",
          "name": "",
          "type": "address"
        },
        {
          "internalType": "uint256",
          "name": "",
          "type": "uint256"
        },
        {
          "internalType": "address",
          "name": "",
          "type": "address"
        },
        {
          "internalType": "address",
          "name": "",
          "type": "address"
        }
      ],
      "stateMutability": "view",
      "type": "function"
    },
    {
      "inputs": [],
      "name": "getHighestBid",
      "outputs": [
        {
          "internalType": "uint256",
          "name": "",
          "type": "uint256"
        }
      ],
      "stateMutability": "view",
      "type": "function"
    }
  ],
  "bytecode": "0x60806040523480156200001157600080fd5b5060405162002513380380620025138339818101604052810190620000379190620002bc565b600086116200004557600080fd5b866007819055508560058190555084600681905550876000806101000a81548173ffffffffffffffffffffffffffffffffffffffff021916908373ffffffffffffffffffffffffffffffffffffffff16021790555088600260006101000a81548173ffffffffffffffffffffffffffffffffffffffff021916908373ffffffffffffffffffffffffffffffffffffffff160217905550836003819055508260048190555081600860006101000a81548173ffffffffffffffffffffffffffffffffffffffff021916908373ffffffffffffffffffffffffffffffffffffffff16021790555080600960006101000a81548173ffffffffffffffffffffffffffffffffffffffff021916908373ffffffffffffffffffffffffffffffffffffffff1602179055506000600960146101000a81548160ff02191690831515021790555081600c60006101000a81548173ffffffffffffffffffffffffffffffffffffffff021916908373ffffffffffffffffffffffffffffffffffffffff16021790555080600d60006101000a81548173ffffffffffffffffffffffffffffffffffffffff021916908373ffffffffffffffffffffffffffffffffffffffff1602179055505050505050505050506200039b565b600080fd5b600073ffffffffffffffffffffffffffffffffffffffff82169050919050565b600062000249826200021c565b9050919050565b6200025b816200023c565b81146200026757600080fd5b50565b6000815190506200027b8162000250565b92915050565b6000819050919050565b620002968162000281565b8114620002a257600080fd5b50565b600081519050620002b6816200028b565b92915050565b60008060008060008060008060006101208a8c031215620002e257620002e162000217565b5b6000620002f28c828d016200026a565b9950506020620003058c828d016200026a565b9850506040620003188c828d01620002a5565b97505060606200032b8c828d01620002a5565b96505060806200033e8c828d01620002a5565b95505060a0620003518c828d01620002a5565b94505060c0620003648c828d01620002a5565b93505060e0620003778c828d016200026a565b9250506101006200038b8c828d016200026a565b9150509295985092959850929598565b61216880620003ab6000396000f3fe60806040526004361061012a5760003560e01c80637150d8ae116100ab578063d57bde791161006f578063d57bde7914610342578063db83694c1461036d578063defd6c5f146103a0578063e45be8eb146103cb578063ed338ff1146103f6578063ef0a230e146104215761012a565b80637150d8ae1461028c578063903e329c146102b757806391f90157146102c1578063a8f6c913146102ec578063c7e284b8146103175761012a565b80631cbaee2d116100f25780631cbaee2d146101e5578063454a2ab3146102105780634979440a1461022c5780635bf8633a1461025757806364edfbf0146102825761012a565b806308551a531461012f5780630a7f463f1461015a57806312fa6feb1461016457806317d70f7c1461018f5780631c1cb323146101ba575b600080fd5b34801561013b57600080fd5b5061014461044c565b604051610151919061184f565b60405180910390f35b610162610470565b005b34801561017057600080fd5b50610179610725565b6040516101869190611885565b60405180910390f35b34801561019b57600080fd5b506101a4610738565b6040516101b191906118b9565b60405180910390f35b3480156101c657600080fd5b506101cf61073e565b6040516101dc919061184f565b60405180910390f35b3480156101f157600080fd5b506101fa610764565b60405161020791906118b9565b60405180910390f35b61022a60048036038101906102259190611905565b61076a565b005b34801561023857600080fd5b50610241610d63565b60405161024e91906118b9565b60405180910390f35b34801561026357600080fd5b5061026c610d6d565b604051610279919061184f565b60405180910390f35b61028a610d93565b005b34801561029857600080fd5b506102a1611337565b6040516102ae919061184f565b60405180910390f35b6102bf61135d565b005b3480156102cd57600080fd5b506102d66116ac565b6040516102e3919061184f565b60405180910390f35b3480156102f857600080fd5b506103016116d2565b60405161030e9190611991565b60405180910390f35b34801561032357600080fd5b5061032c6116f8565b60405161033991906119c5565b60405180910390f35b34801561034e57600080fd5b5061035761170d565b60405161036491906118b9565b60405180910390f35b34801561037957600080fd5b50610382611713565b604051610397999897969594939291906119e0565b60405180910390f35b3480156103ac57600080fd5b506103b56117b9565b6040516103c291906118b9565b60405180910390f35b3480156103d757600080fd5b506103e06117bf565b6040516103ed91906118b9565b60405180910390f35b34801561040257600080fd5b5061040b6117c5565b60405161041891906118b9565b60405180910390f35b34801561042d57600080fd5b506104366117cb565b6040516104439190611a8e565b60405180910390f35b60008054906101000a900473ffffffffffffffffffffffffffffffffffffffff1681565b60045442116104b4576040517f08c379a00000000000000000000000000000000000000000000000000000000081526004016104ab90611b06565b60405180910390fd5b600a60009054906101000a900473ffffffffffffffffffffffffffffffffffffffff1673ffffffffffffffffffffffffffffffffffffffff163373ffffffffffffffffffffffffffffffffffffffff1614610544576040517f08c379a000000000000000000000000000000000000000000000000000000000815260040161053b90611b72565b60405180910390fd5b600c60009054906101000a900473ffffffffffffffffffffffffffffffffffffffff1673ffffffffffffffffffffffffffffffffffffffff166323b872dd3060008054906101000a900473ffffffffffffffffffffffffffffffffffffffff16600b546040518463ffffffff1660e01b81526004016105c593929190611b92565b6020604051808303816000875af11580156105e4573d6000803e3d6000fd5b505050506040513d601f19601f820116820180604052508101906106089190611bf5565b50600d60009054906101000a900473ffffffffffffffffffffffffffffffffffffffff1673ffffffffffffffffffffffffffffffffffffffff166342842e0e30600a60009054906101000a900473ffffffffffffffffffffffffffffffffffffffff166007546040518463ffffffff1660e01b815260040161068c93929190611b92565b600060405180830381600087803b1580156106a657600080fd5b505af11580156106ba573d6000803e3d6000fd5b505050506106c66117f1565b7f349f939aaa1895cee67485b264474f0d2a1aac01083917b8ea9f96e4036cbb27600a60009054906101000a900473ffffffffffffffffffffffffffffffffffffffff16600b5460405161071b929190611c22565b60405180910390a1565b600960149054906101000a900460ff1681565b60075481565b600860009054906101000a900473ffffffffffffffffffffffffffffffffffffffff1681565b60035481565b6003544210156107af576040517f08c379a00000000000000000000000000000000000000000000000000000000081526004016107a690611c97565b60405180910390fd5b600960149054906101000a900460ff16156107ff576040517f08c379a00000000000000000000000000000000000000000000000000000000081526004016107f690611d29565b60405180910390fd5b33600160006101000a81548173ffffffffffffffffffffffffffffffffffffffff021916908373ffffffffffffffffffffffffffffffffffffffff160217905550600160009054906101000a900473ffffffffffffffffffffffffffffffffffffffff1673ffffffffffffffffffffffffffffffffffffffff1660008054906101000a900473ffffffffffffffffffffffffffffffffffffffff1673ffffffffffffffffffffffffffffffffffffffff1614156108f1576040517f08c379a00000000000000000000000000000000000000000000000000000000081526004016108e890611d95565b60405180910390fd5b6004544210610935576040517f08c379a000000000000000000000000000000000000000000000000000000000815260040161092c90611e01565b60405180910390fd5b600c60009054906101000a900473ffffffffffffffffffffffffffffffffffffffff1673ffffffffffffffffffffffffffffffffffffffff1663095ea7b3600160009054906101000a900473ffffffffffffffffffffffffffffffffffffffff16836040518363ffffffff1660e01b81526004016109b4929190611c22565b6020604051808303816000875af11580156109d3573d6000803e3d6000fd5b505050506040513d601f19601f820116820180604052508101906109f79190611bf5565b610a36576040517f08c379a0000000000000000000000000000000000000000000000000000000008152600401610a2d90611e6d565b60405180910390fd5b806005541115610a7b576040517f08c379a0000000000000000000000000000000000000000000000000000000008152600401610a7290611ed9565b60405180910390fd5b80600b5410610abf576040517f08c379a0000000000000000000000000000000000000000000000000000000008152600401610ab690611f45565b60405180910390fd5b6006548110610b03576040517f08c379a0000000000000000000000000000000000000000000000000000000008152600401610afa90611fd7565b60405180910390fd5b6000600b541115610bd657600c60009054906101000a900473ffffffffffffffffffffffffffffffffffffffff1673ffffffffffffffffffffffffffffffffffffffff166323b872dd30600a60009054906101000a900473ffffffffffffffffffffffffffffffffffffffff16600b546040518463ffffffff1660e01b8152600401610b9193929190611b92565b6020604051808303816000875af1158015610bb0573d6000803e3d6000fd5b505050506040513d601f19601f82011682018060405250810190610bd49190611bf5565b505b600160009054906101000a900473ffffffffffffffffffffffffffffffffffffffff16600a60006101000a81548173ffffffffffffffffffffffffffffffffffffffff021916908373ffffffffffffffffffffffffffffffffffffffff16021790555080600b81905550600c60009054906101000a900473ffffffffffffffffffffffffffffffffffffffff1673ffffffffffffffffffffffffffffffffffffffff166323b872dd600160009054906101000a900473ffffffffffffffffffffffffffffffffffffffff1630846040518463ffffffff1660e01b8152600401610cc193929190611b92565b6020604051808303816000875af1158015610ce0573d6000803e3d6000fd5b505050506040513d601f19601f82011682018060405250810190610d049190611bf5565b507f9a7ee7c473e470da200bb28a0e3ee1fe516d900eaade5825f7960323b9d77740600160009054906101000a900473ffffffffffffffffffffffffffffffffffffffff1682604051610d58929190611c22565b60405180910390a150565b6000600b54905090565b600960009054906101000a900473ffffffffffffffffffffffffffffffffffffffff1681565b600354421015610dd8576040517f08c379a0000000000000000000000000000000000000000000000000000000008152600401610dcf90611c97565b60405180910390fd5b600960149054906101000a900460ff1615610e28576040517f08c379a0000000000000000000000000000000000000000000000000000000008152600401610e1f90611d29565b60405180910390fd5b33600160006101000a81548173ffffffffffffffffffffffffffffffffffffffff021916908373ffffffffffffffffffffffffffffffffffffffff160217905550600160009054906101000a900473ffffffffffffffffffffffffffffffffffffffff1673ffffffffffffffffffffffffffffffffffffffff1660008054906101000a900473ffffffffffffffffffffffffffffffffffffffff1673ffffffffffffffffffffffffffffffffffffffff161415610f1a576040517f08c379a0000000000000000000000000000000000000000000000000000000008152600401610f1190611d95565b60405180910390fd5b6004544210610f5e576040517f08c379a0000000000000000000000000000000000000000000000000000000008152600401610f5590611e01565b60405180910390fd5b600c60009054906101000a900473ffffffffffffffffffffffffffffffffffffffff1673ffffffffffffffffffffffffffffffffffffffff1663095ea7b3600160009054906101000a900473ffffffffffffffffffffffffffffffffffffffff166006546040518363ffffffff1660e01b8152600401610fdf929190611c22565b6020604051808303816000875af1158015610ffe573d6000803e3d6000fd5b505050506040513d601f19601f820116820180604052508101906110229190611bf5565b611061576040517f08c379a000000000000000000000000000000000000000000000000000000000815260040161105890611e6d565b60405180910390fd5b6000600b54111561113457600c60009054906101000a900473ffffffffffffffffffffffffffffffffffffffff1673ffffffffffffffffffffffffffffffffffffffff166323b872dd30600a60009054906101000a900473ffffffffffffffffffffffffffffffffffffffff16600b546040518463ffffffff1660e01b81526004016110ef93929190611b92565b6020604051808303816000875af115801561110e573d6000803e3d6000fd5b505050506040513d601f19601f820116820180604052508101906111329190611bf5565b505b600c60009054906101000a900473ffffffffffffffffffffffffffffffffffffffff1673ffffffffffffffffffffffffffffffffffffffff166323b872dd600160009054906101000a900473ffffffffffffffffffffffffffffffffffffffff1660008054906101000a900473ffffffffffffffffffffffffffffffffffffffff166006546040518463ffffffff1660e01b81526004016111d793929190611b92565b6020604051808303816000875af11580156111f6573d6000803e3d6000fd5b505050506040513d601f19601f8201168201806040525081019061121a9190611bf5565b50600d60009054906101000a900473ffffffffffffffffffffffffffffffffffffffff1673ffffffffffffffffffffffffffffffffffffffff166342842e0e30600160009054906101000a900473ffffffffffffffffffffffffffffffffffffffff166007546040518463ffffffff1660e01b815260040161129e93929190611b92565b600060405180830381600087803b1580156112b857600080fd5b505af11580156112cc573d6000803e3d6000fd5b505050506112d86117f1565b7f349f939aaa1895cee67485b264474f0d2a1aac01083917b8ea9f96e4036cbb27600160009054906101000a900473ffffffffffffffffffffffffffffffffffffffff1660065460405161132d929190611c22565b60405180910390a1565b600160009054906101000a900473ffffffffffffffffffffffffffffffffffffffff1681565b6003544210156113a2576040517f08c379a000000000000000000000000000000000000000000000000000000000815260040161139990611c97565b60405180910390fd5b600960149054906101000a900460ff16156113f2576040517f08c379a00000000000000000000000000000000000000000000000000000000081526004016113e990611d29565b60405180910390fd5b6004544210611436576040517f08c379a000000000000000000000000000000000000000000000000000000000815260040161142d90612043565b60405180910390fd5b600260009054906101000a900473ffffffffffffffffffffffffffffffffffffffff1673ffffffffffffffffffffffffffffffffffffffff163373ffffffffffffffffffffffffffffffffffffffff1614806114dd575060008054906101000a900473ffffffffffffffffffffffffffffffffffffffff1673ffffffffffffffffffffffffffffffffffffffff163373ffffffffffffffffffffffffffffffffffffffff16145b61151c576040517f08c379a0000000000000000000000000000000000000000000000000000000008152600401611513906120af565b60405180910390fd5b6000600b5411156115ef57600c60009054906101000a900473ffffffffffffffffffffffffffffffffffffffff1673ffffffffffffffffffffffffffffffffffffffff166323b872dd600a60009054906101000a900473ffffffffffffffffffffffffffffffffffffffff1630600b546040518463ffffffff1660e01b81526004016115aa93929190611b92565b6020604051808303816000875af11580156115c9573d6000803e3d6000fd5b505050506040513d601f19601f820116820180604052508101906115ed9190611bf5565b505b600d60009054906101000a900473ffffffffffffffffffffffffffffffffffffffff1673ffffffffffffffffffffffffffffffffffffffff166342842e0e3060008054906101000a900473ffffffffffffffffffffffffffffffffffffffff166007546040518463ffffffff1660e01b815260040161167093929190611b92565b600060405180830381600087803b15801561168a57600080fd5b505af115801561169e573d6000803e3d6000fd5b505050506116aa6117f1565b565b600a60009054906101000a900473ffffffffffffffffffffffffffffffffffffffff1681565b600c60009054906101000a900473ffffffffffffffffffffffffffffffffffffffff1681565b60004260045461170891906120fe565b905090565b600b5481565b6000806000806000806000806000600354600454600554600654600754600a60009054906101000a900473ffffffffffffffffffffffffffffffffffffffff16600b54600860009054906101000a900473ffffffffffffffffffffffffffffffffffffffff16600960009054906101000a900473ffffffffffffffffffffffffffffffffffffffff16985098509850985098509850985098509850909192939495969798565b60065481565b60055481565b60045481565b600d60009054906101000a900473ffffffffffffffffffffffffffffffffffffffff1681565b6001600960146101000a81548160ff021916908315150217905550565b600073ffffffffffffffffffffffffffffffffffffffff82169050919050565b60006118398261180e565b9050919050565b6118498161182e565b82525050565b60006020820190506118646000830184611840565b92915050565b60008115159050919050565b61187f8161186a565b82525050565b600060208201905061189a6000830184611876565b92915050565b6000819050919050565b6118b3816118a0565b82525050565b60006020820190506118ce60008301846118aa565b92915050565b600080fd5b6118e2816118a0565b81146118ed57600080fd5b50565b6000813590506118ff816118d9565b92915050565b60006020828403121561191b5761191a6118d4565b5b6000611929848285016118f0565b91505092915050565b6000819050919050565b600061195761195261194d8461180e565b611932565b61180e565b9050919050565b60006119698261193c565b9050919050565b600061197b8261195e565b9050919050565b61198b81611970565b82525050565b60006020820190506119a66000830184611982565b92915050565b6000819050919050565b6119bf816119ac565b82525050565b60006020820190506119da60008301846119b6565b92915050565b6000610120820190506119f6600083018c6118aa565b611a03602083018b6118aa565b611a10604083018a6118aa565b611a1d60608301896118aa565b611a2a60808301886118aa565b611a3760a0830187611840565b611a4460c08301866118aa565b611a5160e0830185611840565b611a5f610100830184611840565b9a9950505050505050505050565b6000611a788261195e565b9050919050565b611a8881611a6d565b82525050565b6000602082019050611aa36000830184611a7f565b92915050565b600082825260208201905092915050565b7f4e46542053656c6c696e67206973206e6f7420636c6f73656400000000000000600082015250565b6000611af0601983611aa9565b9150611afb82611aba565b602082019050919050565b60006020820190508181036000830152611b1f81611ae3565b9050919050565b7f596f7520617265206e6f74206120686967686573742062696464657200000000600082015250565b6000611b5c601c83611aa9565b9150611b6782611b26565b602082019050919050565b60006020820190508181036000830152611b8b81611b4f565b9050919050565b6000606082019050611ba76000830186611840565b611bb46020830185611840565b611bc160408301846118aa565b949350505050565b611bd28161186a565b8114611bdd57600080fd5b50565b600081519050611bef81611bc9565b92915050565b600060208284031215611c0b57611c0a6118d4565b5b6000611c1984828501611be0565b91505092915050565b6000604082019050611c376000830185611840565b611c4460208301846118aa565b9392505050565b7f53616c653a20546869732073616c65206973206e6f7420737461727465642e00600082015250565b6000611c81601f83611aa9565b9150611c8c82611c4b565b602082019050919050565b60006020820190508181036000830152611cb081611c74565b9050919050565b7f54686973204e46542073656c6c696e6720697320616c726561647920636c6f7360008201527f6564000000000000000000000000000000000000000000000000000000000000602082015250565b6000611d13602283611aa9565b9150611d1e82611cb7565b604082019050919050565b60006020820190508181036000830152611d4281611d06565b9050919050565b7f53656c6c65722063616e206e6f74206275792074686973204e46540000000000600082015250565b6000611d7f601b83611aa9565b9150611d8a82611d49565b602082019050919050565b60006020820190508181036000830152611dae81611d72565b9050919050565b7f4e46542053656c6c696e6720697320636c6f7365640000000000000000000000600082015250565b6000611deb601583611aa9565b9150611df682611db5565b602082019050919050565b60006020820190508181036000830152611e1a81611dde565b9050919050565b7f4e6f7420417070726f7665640000000000000000000000000000000000000000600082015250565b6000611e57600c83611aa9565b9150611e6282611e21565b602082019050919050565b60006020820190508181036000830152611e8681611e4a565b9050919050565b7f6d696e507269636520697320686967686572207468616e20796f757273000000600082015250565b6000611ec3601d83611aa9565b9150611ece82611e8d565b602082019050919050565b60006020820190508181036000830152611ef281611eb6565b9050919050565b7f596f752073686f756c6420626964206d6f726520616d6f756e74000000000000600082015250565b6000611f2f601a83611aa9565b9150611f3a82611ef9565b602082019050919050565b60006020820190508181036000830152611f5e81611f22565b9050919050565b7f596f7572206269645f616d6f756e7420697320686967686572207468616e207060008201527f757263686173655f507269636500000000000000000000000000000000000000602082015250565b6000611fc1602d83611aa9565b9150611fcc82611f65565b604082019050919050565b60006020820190508181036000830152611ff081611fb4565b9050919050565b7f596f752063616e6e6f742063616e63656c000000000000000000000000000000600082015250565b600061202d601183611aa9565b915061203882611ff7565b602082019050919050565b6000602082019050818103600083015261205c81612020565b9050919050565b7f596f7520646f6e74206861766520616e79207065726d697373696f6e00000000600082015250565b6000612099601c83611aa9565b91506120a482612063565b602082019050919050565b600060208201905081810360008301526120c88161208c565b9050919050565b7f4e487b7100000000000000000000000000000000000000000000000000000000600052601160045260246000fd5b6000612109826118a0565b9150612114836118a0565b925082821015612127576121266120cf565b5b82820390509291505056fea264697066735822122062935b3ae40180bd3e276d585cf710e776de09c5692e46a6a7fe0a8a7a97f40d64736f6c634300080a0033",
  "immutableReferences": {},
  "source": "// SPDX-License-Identifier: MIT\r\npragma solidity ^0.8.4;\r\n\r\nimport \"./access/Ownable.sol\";\r\nimport \"./token/ERC20/ERC20.sol\";\r\nimport \"./token/ERC721/ERC721.sol\";\r\nimport \"./SsafyNFT.sol\";\r\n\r\n/**\r\n * PJT  - Req.1-SC1 SaleFactory \r\n *    ,      .\r\n */\r\ncontract SaleFactory is Ownable {\r\n    SsafyNFT public mintSsafyNftAddress;\r\n    Sale public saleContract;\r\n    address public admin;\r\n    address[] public sales;\r\n\r\n    event NewSale(\r\n        address indexed _saleContract,\r\n        address indexed _owner,\r\n        uint256 _workId\r\n    );\r\n\r\n    constructor() {\r\n        admin = msg.sender;\r\n    }\r\n\r\n    /**\r\n     * OYT | 2022.03.17 | v1.0\r\n     * @dev sale contract  saleFactory CA \r\n     * startTime, endTime -> front Date.now()    \r\n     */\r\n    function createSale(\r\n        uint256 itemId, // tokenId\r\n        uint256 minPrice, //  bid\r\n        uint256 purchasePrice, // \r\n        uint256 startTime, //  \r\n        uint256 endTime, //  \r\n        address currencyAddress, //   ssf 0x6C927304104cdaa5a8b3691E0ADE8a3ded41a333\r\n        address nftAddress // nft contract \r\n    ) public returns (address) {\r\n        mintSsafyNftAddress = SsafyNFT(nftAddress);\r\n        // TODO\r\n        address tokenOwner = mintSsafyNftAddress.ownerOf(itemId);\r\n\r\n        // contract   \r\n        require(tokenOwner == msg.sender, \"Caller is not NFT token owner.\");\r\n        require(minPrice > 0, \"Price is zero or lower.\");\r\n        require(purchasePrice > 0, \"Price is zero or lower.\");\r\n\r\n        // sale contract \r\n        saleContract = new Sale(admin, tokenOwner, itemId, minPrice, purchasePrice, startTime, endTime, currencyAddress, nftAddress);\r\n        \r\n        // setApprovalForAll(saleContract, true); // web3 \r\n        \r\n        sales.push(address(saleContract));\r\n        \r\n        emit NewSale(address(saleContract), owner(), (sales.length-1));\r\n\r\n        return address(saleContract);\r\n    }\r\n\r\n    function allSales() public view returns (address[] memory) {\r\n        return sales;\r\n    }\r\n\r\n}\r\n\r\n/**\r\n *  PJT  - Req.1-SC2) Sale \r\n */\r\ncontract Sale {\r\n\r\n    //    \r\n    address public seller;\r\n    address public buyer;\r\n    address admin;\r\n    uint256 public saleStartTime;\r\n    uint256 public saleEndTime;\r\n    uint256 public minPrice;\r\n    uint256 public purchasePrice;\r\n    uint256 public tokenId;\r\n    address public currencyAddress;\r\n    address public nftAddress;\r\n    bool public ended;\r\n\r\n    //    \r\n    address public highestBidder;\r\n    uint256 public highestBid;\r\n\r\n    IERC20 public erc20Contract;\r\n    IERC721 public erc721Constract;\r\n\r\n    event HighestBidIncereased(address bidder, uint256 amount);\r\n    event SaleEnded(address winner, uint256 amount);\r\n\r\n\r\n    constructor(\r\n        address _admin,\r\n        address _seller,\r\n        uint256 _tokenId,\r\n        uint256 _minPrice,\r\n        uint256 _purchasePrice,\r\n        uint256 startTime,\r\n        uint256 endTime,\r\n        address _currencyAddress,\r\n        address _nftAddress\r\n    )  {\r\n        require(_minPrice > 0);\r\n        tokenId = _tokenId;\r\n        minPrice = _minPrice;\r\n        purchasePrice = _purchasePrice;\r\n        seller = _seller;\r\n        admin = _admin;\r\n        saleStartTime = startTime;\r\n        saleEndTime = endTime;\r\n        currencyAddress = _currencyAddress; // \r\n        nftAddress = _nftAddress;\r\n        ended = false;\r\n        erc20Contract = IERC20(_currencyAddress);\r\n        erc721Constract = IERC721(_nftAddress);\r\n    }\r\n\r\n    function bid(uint256 bid_amount) public payable onlyAfterStart endcheck{\r\n        //    .\r\n\r\n        //     \r\n        buyer = msg.sender;\r\n        require(seller != buyer, \"Seller can not buy this NFT\");\r\n\r\n        //  Sale      \r\n        require(block.timestamp < saleEndTime, \"NFT Selling is closed\");\r\n        \r\n        //   Sale    ERC-20  \r\n        //      (ERC-20 approve)\r\n        require(erc20Contract.approve(buyer, bid_amount), \"Not Approved\");\r\n\r\n        //      \r\n        require(minPrice <= bid_amount, \"minPrice is higher than yours\");\r\n\r\n        //     \r\n        require(highestBid < bid_amount, \"You should bid more amount\");\r\n\r\n        //    \r\n        require(bid_amount < purchasePrice, \"Your bid_amount is higher than purchase_Price\");\r\n\r\n        //        ,  , \r\n        if(highestBid > 0){\r\n            erc20Contract.transferFrom(address(this), highestBidder, highestBid);\r\n        }\r\n        \r\n        highestBidder = buyer;\r\n        highestBid = bid_amount;\r\n\r\n        erc20Contract.transferFrom(buyer, address(this), bid_amount);\r\n\r\n        emit HighestBidIncereased(buyer, bid_amount);\r\n\r\n    }\r\n\r\n    function purchase() public payable onlyAfterStart endcheck{\r\n\r\n        //     \r\n        buyer = msg.sender;\r\n        require(seller != buyer, \"Seller can not buy this NFT\");\r\n\r\n        //  Sale      \r\n        require(block.timestamp < saleEndTime, \"NFT Selling is closed\");\r\n        \r\n        //   Sale    ERC-20  \r\n        //      (ERC-20 approve)\r\n        require(erc20Contract.approve(buyer, purchasePrice), \"Not Approved\");\r\n\r\n        //1 bid\r\n        if(highestBid > 0){\r\n            erc20Contract.transferFrom(address(this), highestBidder, highestBid);\r\n        }\r\n\r\n        //2.  ERC-20     .\r\n        erc20Contract.transferFrom(buyer, seller, purchasePrice);\r\n\r\n        //3. NFT   .\r\n        erc721Constract.safeTransferFrom(address(this), buyer, tokenId);\r\n\r\n        //4.       .\r\n        _end();\r\n        emit SaleEnded(buyer, purchasePrice);\r\n\r\n    }\r\n\r\n    function confirmItem() public payable{\r\n        //   \r\n        // TODO \r\n        require(block.timestamp > saleEndTime, \"NFT Selling is not closed\");\r\n\r\n        require(msg.sender == highestBidder, \"You are not a highest bidder\");\r\n\r\n        erc20Contract.transferFrom(address(this), seller, highestBid);\r\n\r\n        erc721Constract.safeTransferFrom(address(this), highestBidder, tokenId);\r\n\r\n        _end();\r\n\r\n        emit SaleEnded(highestBidder, highestBid);\r\n\r\n    }\r\n    \r\n    function cancelSales() public payable onlyAfterStart endcheck{\r\n        // TODO\r\n        // \r\n        require(block.timestamp < saleEndTime, \"You cannot cancel\");\r\n\r\n        require(msg.sender == admin || msg.sender == seller, \"You dont have any permission\");\r\n    \r\n        if(highestBid > 0){\r\n            erc20Contract.transferFrom(highestBidder, address(this), highestBid);\r\n        }\r\n        erc721Constract.safeTransferFrom(address(this), seller, tokenId);\r\n\r\n        _end();\r\n\r\n    }\r\n\r\n    function getTimeLeft() public view returns (int256) {\r\n        return (int256)(saleEndTime - block.timestamp);\r\n    }\r\n\r\n    function getSaleInfo()\r\n        public\r\n        view\r\n        returns (\r\n            uint256,\r\n            uint256,\r\n            uint256,\r\n            uint256,\r\n            uint256,\r\n            address,\r\n            uint256,\r\n            address,\r\n            address\r\n        )\r\n    {\r\n        return (\r\n            saleStartTime,\r\n            saleEndTime,\r\n            minPrice,\r\n            purchasePrice,\r\n            tokenId,\r\n            highestBidder,\r\n            highestBid,\r\n            currencyAddress,\r\n            nftAddress\r\n        );\r\n    }\r\n\r\n    function getHighestBid() public view returns(uint256){\r\n        return highestBid;\r\n    }\r\n\r\n    // internal  private     _  .\r\n    function _end() internal {\r\n        ended = true;\r\n    }\r\n\r\n    function _getCurrencyAmount() private view returns (uint256) {\r\n        return erc20Contract.balanceOf(msg.sender);\r\n    }\r\n\r\n    // modifier       . \r\n    modifier onlySeller() {\r\n        require(msg.sender == seller, \"Sale: You are not seller.\");\r\n        _;\r\n    }\r\n\r\n    modifier onlyAfterStart() {\r\n        require(\r\n            block.timestamp >= saleStartTime,\r\n            \"Sale: This sale is not started.\"\r\n        );\r\n        _;\r\n    }\r\n\r\n    modifier endcheck(){\r\n        require(!ended, \"This NFT selling is already closed\");\r\n        _;\r\n    }\r\n}\r\n",
  "sourcePath": "C:\\Users\\SSAFY\\Desktop\\dev\\S06P22A405\\smart-contracts\\contracts\\SaleFactory.sol",
  "compiler": {
    "name": "solc",
    "version": "0.8.10+commit.fc410830.Emscripten.clang"
  },
  "schemaVersion": "3.4.3",
  "updatedAt": "2022-03-23T06:16:06.468Z",
  "devdoc": {
    "kind": "dev",
    "methods": {},
    "version": 1
  },
  "userdoc": {
    "kind": "user",
    "methods": {},
    "notice": "PJT  - Req.1-SC2) Sale ",
    "version": 1
  }
}